:100000003DC0000057C0000055C0000053C00000B4
:1000100051C000004FC000004DC000004BC00000A8
:1000200049C0000047C0000045C0000043C00000B8
:1000300041C000003FC000003DC000003CC00000C7
:1000400039C0000037C0000035C0000033C00000D8
:1000500031C000002FC000002DC000002BC00000E8
:1000600029C0000027C0000025C0000023C00000F8
:1000700021C000001FC000001DC0000011241FBED1
:10008000CFEFCDBFDFE3DEBF809140008093400023
:10009000811105C098ED21E094BF209341008CBBF5
:1000A00028E3A0E0B8E301C01D92AA30B207E1F74F
:1000B0003CD08AC0A5CFEF93FF93E0E0F8E38F93A5
:1000C0008FB78F939F937F9372E080819181885D3A
:1000D0009F4F80839183885E934018F08083918343
:1000E0007F5F9281970F928380E09381981F938323
:1000F0009481981F94839581981F958396819F5F23
:10010000968397819F4F978390859F4F9087918586
:100110009F4F918781E080938D0A7F919F918F916E
:100120008FBF8F91FF91EF91189597E088ED84BF75
:100130009093610080E5809302068AE08093050633
:1001400080E28093030681E0809300068093030A97
:100150002EEF2093260A2093270A9093000A2DEF72
:1001600031E02093AE0A3093AF0A1092810A90E8F2
:100170009093820A80938C0A83E18093800A78941A
:10018000A2E0B2E88D918231D0F490E0FC01E05120
:10019000FE4720812F3F99F0FC01E252FE47E081AB
:1001A000E295EE0FF0E0F460228384539E47EC0169
:1001B00088818061E80FF11D8081877F8083D2E88C
:0C01C000A830BD07F9F6FFCFF894FFCF80
:1001CC0004050607050403020100000102030102F5
:1001DC000300000000000101010101010202020202
:1001EC0000000000102040802010080402010102D1
:0C01FC000408020408010E0F00010203B9
:00000001FF
